{
  "transactions": [
    {
      "hash": "0x8ea20e72b689ca5fed8984513329f520b9a5b897c4ffa4f7afd06415c5d79c3d",
      "transactionType": "CREATE",
      "contractName": "LoveBirds",
      "contractAddress": "0xa136683524271d54b103923b988D9e75C20DEe77",
      "function": null,
      "arguments": null,
      "rpc": "https://goerli.infura.io/v3/7b27a3339e154d55b4a6bffd0e2cb161",
      "transaction": {
        "type": "0x02",
        "from": "0x66806e42191e65968cd520d2615566e24368ef12",
        "gas": "0x29399a",
        "value": "0x0",
        "data": "0x60806040523480156200001157600080fd5b50733cc6cdda760b79bafa08df41ecfa224f810dceb660016040518060400160405280600a8152602001694c6f766520426972647360b01b8152506040518060400160405280600a8152602001694c6f766520426972647360b01b81525081600090816200008091906200044e565b5060016200008f82826200044e565b5050506daaeb6d7670e522a718067333cd4e3b15620001d75780156200012557604051633e9f1edf60e11b81523060048201526001600160a01b03831660248201526daaeb6d7670e522a718067333cd4e90637d3e3dbe906044015b600060405180830381600087803b1580156200010657600080fd5b505af11580156200011b573d6000803e3d6000fd5b50505050620001d7565b6001600160a01b03821615620001765760405163a0af290360e01b81523060048201526001600160a01b03831660248201526daaeb6d7670e522a718067333cd4e9063a0af290390604401620000eb565b604051632210724360e11b81523060048201526daaeb6d7670e522a718067333cd4e90634420e48690602401600060405180830381600087803b158015620001bd57600080fd5b505af1158015620001d2573d6000803e3d6000fd5b505050505b5050336000908152600a602052604090819020805460ff1916600117905580516101008101909152602460a0820181815282916200223760c0840139815260200160405180604001604052806012815260200171111610113232b9b1b934b83a34b7b7111d1160711b81525081526020016040518060800160405280605081526020016200225b60509139815260200160405180604001604052806011815260200170222c202261747472696275746573223a5b60781b8152508152602001604051806040016040528060028152602001615d7d60f01b8152508152506006906005620002c6929190620002d2565b5060006007556200051a565b8280548282559060005260206000209081019282156200031d579160200282015b828111156200031d57825182906200030c90826200044e565b5091602001919060010190620002f3565b506200032b9291506200032f565b5090565b808211156200032b57600062000346828262000350565b506001016200032f565b5080546200035e90620003bf565b6000825580601f106200036f575050565b601f0160209004906000526020600020908101906200038f919062000392565b50565b5b808211156200032b576000815560010162000393565b634e487b7160e01b600052604160045260246000fd5b600181811c90821680620003d457607f821691505b602082108103620003f557634e487b7160e01b600052602260045260246000fd5b50919050565b601f8211156200044957600081815260208120601f850160051c81016020861015620004245750805b601f850160051c820191505b81811015620004455782815560010162000430565b5050505b505050565b81516001600160401b038111156200046a576200046a620003a9565b62000482816200047b8454620003bf565b84620003fb565b602080601f831160018114620004ba5760008415620004a15750858301515b600019600386901b1c1916600185901b17855562000445565b600085815260208120601f198616915b82811015620004eb57888601518255948401946001909101908401620004ca565b50858210156200050a5787850151600019600388901b60f8161c191681555b5050505050600190811b01905550565b611d0d806200052a6000396000f3fe608060405234801561001057600080fd5b50600436106101375760003560e01c80636352211e116100b857806395d89b411161007c57806395d89b41146102af578063a22cb465146102b7578063b88d4fde146102ca578063c87b56dd146102dd578063d3b86141146102f0578063e985e9c51461030357600080fd5b80636352211e1461025057806368614e84146102635780636a6278421461027657806370a08231146102895780638c7ea24b1461029c57600080fd5b806323b872dd116100ff57806323b872dd146101d05780632a55205a146101e357806341f434341461021557806342842e0e1461022a57806342966c681461023d57600080fd5b806301ffc9a71461013c57806306fdde0314610164578063081812fc14610179578063095ea7b3146101a457806317d70f7c146101b9575b600080fd5b61014f61014a3660046114dd565b610316565b60405190151581526020015b60405180910390f35b61016c610351565b60405161015b9190611551565b61018c610187366004611564565b6103e3565b6040516001600160a01b03909116815260200161015b565b6101b76101b2366004611592565b61040a565b005b6101c260075481565b60405190815260200161015b565b6101b76101de3660046115be565b610423565b6101f66101f13660046115ff565b61044e565b604080516001600160a01b03909316835260208301919091520161015b565b61018c6daaeb6d7670e522a718067333cd4e81565b6101b76102383660046115be565b6104a4565b6101b761024b366004611564565b6104c9565b61018c61025e366004611564565b610506565b6101b761027136600461162f565b61056b565b6101b76102843660046116b8565b6105c7565b6101c26102973660046116b8565b610646565b6101b76102aa366004611592565b6106cc565b61016c610721565b6101b76102c53660046116d5565b610730565b6101b76102d8366004611724565b610744565b61016c6102eb366004611564565b61076a565b6101b76102fe3660046116b8565b6109b7565b61014f610311366004611804565b610a0f565b600061032182610a3d565b8061033c57506001600160e01b0319821663152a902d60e11b145b8061034b575061034b82610a3d565b92915050565b60606000805461036090611832565b80601f016020809104026020016040519081016040528092919081815260200182805461038c90611832565b80156103d95780601f106103ae576101008083540402835291602001916103d9565b820191906000526020600020905b8154815290600101906020018083116103bc57829003601f168201915b5050505050905090565b60006103ee82610a8d565b506000908152600460205260409020546001600160a01b031690565b8161041481610aec565b61041e8383610ba5565b505050565b826001600160a01b038116331461043d5761043d33610aec565b610448848484610cb5565b50505050565b60095460009081906001600160a01b031615610496576009546008546001600160a01b03909116906064906104839086611882565b61048d9190611899565b9150915061049d565b5060009050805b9250929050565b826001600160a01b03811633146104be576104be33610aec565b610448848484610ce6565b336104d382610506565b6001600160a01b0316146104fa576040516307ed98ed60e31b815260040160405180910390fd5b61050381610d01565b50565b6000818152600260205260408120546001600160a01b03168061034b5760405162461bcd60e51b8152602060048201526018602482015277115490cdcc8c4e881a5b9d985b1a59081d1bdad95b88125160421b60448201526064015b60405180910390fd5b336000908152600a602052604090205460ff1661059a576040516282b42960e81b815260040160405180910390fd5b6000848152600b60209081526040808320861515845290915290206105c0828483611909565b5050505050565b336000908152600a602052604090205460ff166105f6576040516282b42960e81b815260040160405180910390fd5b600754156106225760016007541115610622576040516307ed98ed60e31b815260040160405180910390fd5b61062e81600754610db2565b6007805490600061063e836119c9565b919050555050565b60006001600160a01b0382166106b05760405162461bcd60e51b815260206004820152602960248201527f4552433732313a2061646472657373207a65726f206973206e6f7420612076616044820152683634b21037bbb732b960b91b6064820152608401610562565b506001600160a01b031660009081526003602052604090205490565b336000908152600a602052604090205460ff166106fb576040516282b42960e81b815260040160405180910390fd5b600980546001600160a01b0319166001600160a01b039390931692909217909155600855565b60606001805461036090611832565b8161073a81610aec565b61041e8383610f55565b836001600160a01b038116331461075e5761075e33610aec565b6105c085858585610f60565b606060006040518060600160405280602f8152602001611ca9602f91396000848152600b60209081526040808320600954600160a01b900460ff16151584529091528120805492935090916107be90611832565b80601f01602080910402602001604051908101604052809291908181526020018280546107ea90611832565b80156108375780601f1061080c57610100808354040283529160200191610837565b820191906000526020600020905b81548152906001019060200180831161081a57829003601f168201915b50505050509050600060405180602001604052806000815250905060006006600081548110610868576108686119e2565b906000526020600020016040516020016108829190611a6b565b60405160208183030381529060405260066001815481106108a5576108a56119e2565b90600052602060002001856040516020016108c1929190611a8b565b60405160208183030381529060405260066002815481106108e4576108e46119e2565b9060005260206000200185604051602001610900929190611a8b565b6040516020818303038152906040526006600381548110610923576109236119e2565b906000526020600020018560405160200161093f929190611a8b565b6040516020818303038152906040526006600481548110610962576109626119e2565b9060005260206000200160405160200161097c9190611ab0565b60408051601f198184030181529082905261099d9594939291602001611abc565b60408051601f198184030181529190529695505050505050565b336000908152600a602052604090205460ff166109e6576040516282b42960e81b815260040160405180910390fd5b6001600160a01b03166000908152600a60205260409020805460ff19811660ff90911615179055565b6001600160a01b03918216600090815260056020908152604080832093909416825291909152205460ff1690565b60006001600160e01b031982166380ac58cd60e01b1480610a6e57506001600160e01b03198216635b5e139f60e01b145b8061034b57506301ffc9a760e01b6001600160e01b031983161461034b565b6000818152600260205260409020546001600160a01b03166105035760405162461bcd60e51b8152602060048201526018602482015277115490cdcc8c4e881a5b9d985b1a59081d1bdad95b88125160421b6044820152606401610562565b6daaeb6d7670e522a718067333cd4e3b1561050357604051633185c44d60e21b81523060048201526001600160a01b03821660248201526daaeb6d7670e522a718067333cd4e9063c617113490604401602060405180830381865afa158015610b59573d6000803e3d6000fd5b505050506040513d601f19601f82011682018060405250810190610b7d9190611b27565b61050357604051633b79c77360e21b81526001600160a01b0382166004820152602401610562565b6000610bb082610506565b9050806001600160a01b0316836001600160a01b031603610c1d5760405162461bcd60e51b815260206004820152602160248201527f4552433732313a20617070726f76616c20746f2063757272656e74206f776e656044820152603960f91b6064820152608401610562565b336001600160a01b0382161480610c395750610c398133610a0f565b610cab5760405162461bcd60e51b815260206004820152603d60248201527f4552433732313a20617070726f76652063616c6c6572206973206e6f7420746f60448201527f6b656e206f776e6572206f7220617070726f76656420666f7220616c6c0000006064820152608401610562565b61041e8383610f92565b610cbf3382611000565b610cdb5760405162461bcd60e51b815260040161056290611b44565b61041e83838361105f565b61041e83838360405180602001604052806000815250610744565b6000610d0c82610506565b9050610d1c8160008460016111d8565b610d2582610506565b600083815260046020908152604080832080546001600160a01b03199081169091556001600160a01b0385168085526003845282852080546000190190558785526002909352818420805490911690555192935084927fddf252ad1be2c89b69c2b068fc378daa952ba7f163c4a11628f55a4df523b3ef908390a4610dae816000846001611260565b5050565b6001600160a01b038216610e085760405162461bcd60e51b815260206004820181905260248201527f4552433732313a206d696e7420746f20746865207a65726f20616464726573736044820152606401610562565b6000818152600260205260409020546001600160a01b031615610e6d5760405162461bcd60e51b815260206004820152601c60248201527f4552433732313a20746f6b656e20616c7265616479206d696e746564000000006044820152606401610562565b610e7b6000838360016111d8565b6000818152600260205260409020546001600160a01b031615610ee05760405162461bcd60e51b815260206004820152601c60248201527f4552433732313a20746f6b656e20616c7265616479206d696e746564000000006044820152606401610562565b6001600160a01b038216600081815260036020908152604080832080546001019055848352600290915280822080546001600160a01b0319168417905551839291907fddf252ad1be2c89b69c2b068fc378daa952ba7f163c4a11628f55a4df523b3ef908290a4610dae600083836001611260565b610dae3383836112c5565b610f6a3383611000565b610f865760405162461bcd60e51b815260040161056290611b44565b61044884848484611393565b600081815260046020526040902080546001600160a01b0319166001600160a01b0384169081179091558190610fc782610506565b6001600160a01b03167f8c5be1e5ebec7d5bd14f71427d1e84f3dd0314c0f7b2291e5b200ac8c7c3b92560405160405180910390a45050565b60008061100c83610506565b9050806001600160a01b0316846001600160a01b0316148061103357506110338185610a0f565b806110575750836001600160a01b031661104c846103e3565b6001600160a01b0316145b949350505050565b826001600160a01b031661107282610506565b6001600160a01b0316146110985760405162461bcd60e51b815260040161056290611b91565b6001600160a01b0382166110fa5760405162461bcd60e51b8152602060048201526024808201527f4552433732313a207472616e7366657220746f20746865207a65726f206164646044820152637265737360e01b6064820152608401610562565b61110783838360016111d8565b826001600160a01b031661111a82610506565b6001600160a01b0316146111405760405162461bcd60e51b815260040161056290611b91565b600081815260046020908152604080832080546001600160a01b03199081169091556001600160a01b0387811680865260038552838620805460001901905590871680865283862080546001019055868652600290945282852080549092168417909155905184937fddf252ad1be2c89b69c2b068fc378daa952ba7f163c4a11628f55a4df523b3ef91a461041e8383836001611260565b6001811115610448576001600160a01b0384161561121e576001600160a01b03841660009081526003602052604081208054839290611218908490611bd6565b90915550505b6001600160a01b03831615610448576001600160a01b03831660009081526003602052604081208054839290611255908490611be9565b909155505050505050565b6001600160a01b03841615610448576112796001610506565b6001600160a01b031661128c6000610506565b6001600160a01b0316036112b2576009805460ff60a01b1916600160a01b179055610448565b6009805460ff60a01b1916905550505050565b816001600160a01b0316836001600160a01b0316036113265760405162461bcd60e51b815260206004820152601960248201527f4552433732313a20617070726f766520746f2063616c6c6572000000000000006044820152606401610562565b6001600160a01b03838116600081815260056020908152604080832094871680845294825291829020805460ff191686151590811790915591519182527f17307eab39ab6107e8899845ad3d59bd9653f200f220920489ca2b5937696c31910160405180910390a3505050565b61139e84848461105f565b6113aa848484846113c6565b6104485760405162461bcd60e51b815260040161056290611bfc565b60006001600160a01b0384163b156114bc57604051630a85bd0160e11b81526001600160a01b0385169063150b7a029061140a903390899088908890600401611c4e565b6020604051808303816000875af1925050508015611445575060408051601f3d908101601f1916820190925261144291810190611c8b565b60015b6114a2573d808015611473576040519150601f19603f3d011682016040523d82523d6000602084013e611478565b606091505b50805160000361149a5760405162461bcd60e51b815260040161056290611bfc565b805181602001fd5b6001600160e01b031916630a85bd0160e11b149050611057565b506001949350505050565b6001600160e01b03198116811461050357600080fd5b6000602082840312156114ef57600080fd5b81356114fa816114c7565b9392505050565b60005b8381101561151c578181015183820152602001611504565b50506000910152565b6000815180845261153d816020860160208601611501565b601f01601f19169290920160200192915050565b6020815260006114fa6020830184611525565b60006020828403121561157657600080fd5b5035919050565b6001600160a01b038116811461050357600080fd5b600080604083850312156115a557600080fd5b82356115b08161157d565b946020939093013593505050565b6000806000606084860312156115d357600080fd5b83356115de8161157d565b925060208401356115ee8161157d565b929592945050506040919091013590565b6000806040838503121561161257600080fd5b50508035926020909101359150565b801515811461050357600080fd5b6000806000806060858703121561164557600080fd5b84359350602085013561165781611621565b9250604085013567ffffffffffffffff8082111561167457600080fd5b818701915087601f83011261168857600080fd5b81358181111561169757600080fd5b8860208285010111156116a957600080fd5b95989497505060200194505050565b6000602082840312156116ca57600080fd5b81356114fa8161157d565b600080604083850312156116e857600080fd5b82356116f38161157d565b9150602083013561170381611621565b809150509250929050565b634e487b7160e01b600052604160045260246000fd5b6000806000806080858703121561173a57600080fd5b84356117458161157d565b935060208501356117558161157d565b925060408501359150606085013567ffffffffffffffff8082111561177957600080fd5b818701915087601f83011261178d57600080fd5b81358181111561179f5761179f61170e565b604051601f8201601f19908116603f011681019083821181831017156117c7576117c761170e565b816040528281528a60208487010111156117e057600080fd5b82602086016020830137600060208483010152809550505050505092959194509250565b6000806040838503121561181757600080fd5b82356118228161157d565b915060208301356117038161157d565b600181811c9082168061184657607f821691505b60208210810361186657634e487b7160e01b600052602260045260246000fd5b50919050565b634e487b7160e01b600052601160045260246000fd5b808202811582820484141761034b5761034b61186c565b6000826118b657634e487b7160e01b600052601260045260246000fd5b500490565b601f82111561041e57600081815260208120601f850160051c810160208610156118e25750805b601f850160051c820191505b81811015611901578281556001016118ee565b505050505050565b67ffffffffffffffff8311156119215761192161170e565b6119358361192f8354611832565b836118bb565b6000601f84116001811461196957600085156119515750838201355b600019600387901b1c1916600186901b1783556105c0565b600083815260209020601f19861690835b8281101561199a578685013582556020948501946001909201910161197a565b50868210156119b75760001960f88860031b161c19848701351681555b505060018560011b0183555050505050565b6000600182016119db576119db61186c565b5060010190565b634e487b7160e01b600052603260045260246000fd5b60008154611a0581611832565b60018281168015611a1d5760018114611a3257611a61565b60ff1984168752821515830287019450611a61565b8560005260208060002060005b85811015611a585781548a820152908401908201611a3f565b50505082870194505b5050505092915050565b6000611a7782846119f8565b631d195cdd60e21b81526004019392505050565b6000611a9782856119f8565b8351611aa7818360208801611501565b01949350505050565b60006114fa82846119f8565b60008651611ace818460208b01611501565b865190830190611ae2818360208b01611501565b8651910190611af5818360208a01611501565b8551910190611b08818360208901611501565b8451910190611b1b818360208801611501565b01979650505050505050565b600060208284031215611b3957600080fd5b81516114fa81611621565b6020808252602d908201527f4552433732313a2063616c6c6572206973206e6f7420746f6b656e206f776e6560408201526c1c881bdc88185c1c1c9bdd9959609a1b606082015260800190565b60208082526025908201527f4552433732313a207472616e736665722066726f6d20696e636f72726563742060408201526437bbb732b960d91b606082015260800190565b8181038181111561034b5761034b61186c565b8082018082111561034b5761034b61186c565b60208082526032908201527f4552433732313a207472616e7366657220746f206e6f6e20455243373231526560408201527131b2b4bb32b91034b6b83632b6b2b73a32b960711b606082015260800190565b6001600160a01b0385811682528416602082015260408101839052608060608201819052600090611c8190830184611525565b9695505050505050565b600060208284031215611c9d57600080fd5b81516114fa816114c756fe4c69666520697320626574746572207768656e20796f757265207769746820746865206f6e6520796f75206c6f7665a2646970667358221220351ecb629dc73aeec95f1fa05945e15564a5e3f3f19bf914f10a8dda5469524a64736f6c63430008110033646174613a6170706c69636174696f6e2f6a736f6e3b757466382c7b226e616d65223a22222c2022637265617465645f6279223a22536d6f6b65737461636b73202620536d617274636f6e7472617274222c2022696d616765223a22646174613a696d6167652f7376672b786d6c3b757466382c",
        "nonce": "0x178",
        "accessList": []
      },
      "additionalContracts": []
    },
    {
      "hash": "0xc0fd5db7d93023389cf2e419194a0721fae774cd185dcb82368a0b84e02bd21f",
      "transactionType": "CALL",
      "contractName": "LoveBirds",
      "contractAddress": "0xa136683524271d54b103923b988D9e75C20DEe77",
      "function": "setURI(uint256,bool,string)",
      "arguments": [
        "0",
        "false",
        "<svg xmlns='http://www.w3.org/2000/svg' viewBox='0 0 512 512' style='enable-background:new 0 0 512 512' xml:space='preserve'><path fill='transparent' d='M0-.5h64v64H0Z'/><filter id='a' x='-40%' y='-80%' width='140%' height='140%'><feTurbulence baseFrequency='23' numOctaves='2' result='turbulence'/><feDisplacementMap in2='turbulence' in='SourceGraphic' scale='555'/></filter><filter id='b'><feTurbulence baseFrequency='.99' numOctaves='2' result='turbulence'/><feDisplacementMap in2='turbulence' in='SourceGraphic' scale='3' xChannelSelector='R' yChannelSelector='G'><animate attributeName='scale' values='3;5;3' dur='0.1s' repeatCount='indefinite'/></feDisplacementMap></filter><path fill='#fff' d='M0 0h512v512H0z'/><circle id='c' fill='#000' cx='57' cy='766' r='656' style='filter:url(#a)'/><use href='#b' stroke='#9FDDFA'><animate attributeName='x' values=';5;2' dur='1s' repeatCount='indefinite'/><animate attributeName='y' values='2;5;2' dur='1s' repeatCount='indefinite'/></use><use href='#c'><animate attributeName='x' values='3;5;2' dur='1s' repeatCount='indefinite'/><animate attributeName='y' values='3;5;2' dur='1s' repeatCount='indefinite'/></use><use href='#c'/><animate attributeName='fill' values='#FAF4A5;#FFE941;#FAF4A5;#FFE941;#FAF4A5;#FFE941;#FAF4A5;#FFE941;#FAF4A5' dur='7s' repeatCount='indefinite'/><path style='filter:url(#b)' stroke='#000' stroke-linejoin='round' stroke-linecap='round' fill='#fff' d='M-10.6 481.15 141.95 358.4l86.7 7.15 89.45 51.7 29.1 68.2-22-70.25-75.95-49.1 115-25.45 65.3 32.7 112.9-118.7L427.4 363.4l-60.35-29.9-115.7 21.35h-23.5l-75.1-7.15 93-46.9 29.75 9.3 230.05-103.65h33.65v-16.4h-41.45l-218 97.35-31.85-8.6-115.85 51.95-150.35 116.3v42.55l7.7-8.45Z'/><path style='filter:url(#b)' stroke='#000' stroke-linejoin='round' stroke-linecap='round' fill='none' d='M170.85 185.05q0 1.7-1.25 2.9-1.2 1.25-2.9 1.25t-2.95-1.25q-1.2-1.2-1.2-2.9t1.2-2.95q1.25-1.2 2.95-1.2 1.7 0 2.9 1.2 1.25 1.25 1.25 2.95Zm24.2 31.9q18.826 2.289 34.45 39 13.401 51.642 5 79.5l-6.5 32 5.5 31q-2.443 15.83-11.95 14l-4.5 13-24-34.5-19-33-15.5-13q-25.762-14.74-41-38.5-14.284-23.365-11-52-.094-20.865 5-40-1.915-22.154 9.5-40.5 9.945-16.556 18-18l-9.5-5.5q21.778-2.84 43.125 4.625 21.353 7.456 19.375 28.375 10.033 5.859 3 33.5-4.4-18.15-16-18 1.896-13.275 13-15.5'/><path style='filter:url(#b)' fill='#fff' d='M192.05 183.45q1.978-20.92-19.4-28.4-21.322-7.44-43.1-4.6l9.5 5.5q-8.055 1.444-18 18-11.415 18.346-9.5 40.5-5.094 19.135-5 40-3.284 28.635 11 52 15.238 23.76 41 38.5l15.5 13 19 33 24 34.5 4.5-13q9.507 1.83 11.95-14l-5.5-31 6.5-32q8.401-27.858-5-79.5-15.624-36.711-34.45-39-4.4-18.15-16-18 1.896-13.275 13-15.5m-22.45-1.35q1.25 1.25 1.25 2.95 0 1.7-1.25 2.9-1.2 1.25-2.9 1.25t-2.95-1.25q-1.2-1.2-1.2-2.9t1.2-2.95q1.25-1.2 2.95-1.2 1.7 0 2.9 1.2Z'/><path style='filter:url(#b)' d='M170.85 185.05q0-1.7-1.25-2.95-1.2-1.2-2.9-1.2t-2.95 1.2q-1.2 1.25-1.2 2.95 0 1.7 1.2 2.9 1.25 1.25 2.95 1.25 1.7 0 2.9-1.25 1.25-1.2 1.25-2.9m8.2 13.9q11.6-.15 16 18 7.033-27.641-3-33.5-11.104 2.225-13 15.5Z' fill='#000'/></svg>"
      ],
      "rpc": "https://goerli.infura.io/v3/7b27a3339e154d55b4a6bffd0e2cb161",
      "transaction": {
        "type": "0x02",
        "from": "0x66806e42191e65968cd520d2615566e24368ef12",
        "to": "0xa136683524271d54b103923b988d9e75c20dee77",
        "gas": "0x31aa41",
        "value": "0x0",
        "data": "0x68614e840000000000000000000000000000000000000000000000000000000000000000000000000000000000000000000000000000000000000000000000000000000000000000000000000000000000000000000000000000000000000000000000600000000000000000000000000000000000000000000000000000000000000be23c73766720786d6c6e733d27687474703a2f2f7777772e77332e6f72672f323030302f737667272076696577426f783d27302030203531322035313227207374796c653d27656e61626c652d6261636b67726f756e643a6e65772030203020353132203531322720786d6c3a73706163653d277072657365727665273e3c706174682066696c6c3d277472616e73706172656e742720643d274d302d2e3568363476363448305a272f3e3c66696c7465722069643d27612720783d272d3430252720793d272d383025272077696474683d273134302527206865696768743d2731343025273e3c666554757262756c656e636520626173654672657175656e63793d27323327206e756d4f6374617665733d27322720726573756c743d2774757262756c656e6365272f3e3c6665446973706c6163656d656e744d617020696e323d2774757262756c656e63652720696e3d27536f757263654772617068696327207363616c653d27353535272f3e3c2f66696c7465723e3c66696c7465722069643d2762273e3c666554757262756c656e636520626173654672657175656e63793d272e393927206e756d4f6374617665733d27322720726573756c743d2774757262756c656e6365272f3e3c6665446973706c6163656d656e744d617020696e323d2774757262756c656e63652720696e3d27536f757263654772617068696327207363616c653d27332720784368616e6e656c53656c6563746f723d27522720794368616e6e656c53656c6563746f723d2747273e3c616e696d617465206174747269627574654e616d653d277363616c65272076616c7565733d27333b353b3327206475723d27302e31732720726570656174436f756e743d27696e646566696e697465272f3e3c2f6665446973706c6163656d656e744d61703e3c2f66696c7465723e3c706174682066696c6c3d27236666662720643d274d302030683531327635313248307a272f3e3c636972636c652069643d2763272066696c6c3d2723303030272063783d273537272063793d273736362720723d2736353627207374796c653d2766696c7465723a75726c28236129272f3e3c75736520687265663d27236227207374726f6b653d2723394644444641273e3c616e696d617465206174747269627574654e616d653d2778272076616c7565733d273b353b3227206475723d2731732720726570656174436f756e743d27696e646566696e697465272f3e3c616e696d617465206174747269627574654e616d653d2779272076616c7565733d27323b353b3227206475723d2731732720726570656174436f756e743d27696e646566696e697465272f3e3c2f7573653e3c75736520687265663d272363273e3c616e696d617465206174747269627574654e616d653d2778272076616c7565733d27333b353b3227206475723d2731732720726570656174436f756e743d27696e646566696e697465272f3e3c616e696d617465206174747269627574654e616d653d2779272076616c7565733d27333b353b3227206475723d2731732720726570656174436f756e743d27696e646566696e697465272f3e3c2f7573653e3c75736520687265663d272363272f3e3c616e696d617465206174747269627574654e616d653d2766696c6c272076616c7565733d27234641463441353b234646453934313b234641463441353b234646453934313b234641463441353b234646453934313b234641463441353b234646453934313b2346414634413527206475723d2737732720726570656174436f756e743d27696e646566696e697465272f3e3c70617468207374796c653d2766696c7465723a75726c2823622927207374726f6b653d272330303027207374726f6b652d6c696e656a6f696e3d27726f756e6427207374726f6b652d6c696e656361703d27726f756e64272066696c6c3d27236666662720643d274d2d31302e36203438312e3135203134312e3935203335382e346c38362e3720372e31352038392e34352035312e372032392e312036382e322d32322d37302e32352d37352e39352d34392e31203131352d32352e34352036352e332033322e37203131322e392d3131382e374c3432372e34203336332e346c2d36302e33352d32392e392d3131352e372032312e3335682d32332e356c2d37352e312d372e31352039332d34362e392032392e373520392e33203233302e30352d3130332e36356833332e3635762d31362e34682d34312e34356c2d3231382039372e33352d33312e38352d382e362d3131352e38352035312e39352d3135302e3335203131362e337634322e35356c372e372d382e34355a272f3e3c70617468207374796c653d2766696c7465723a75726c2823622927207374726f6b653d272330303027207374726f6b652d6c696e656a6f696e3d27726f756e6427207374726f6b652d6c696e656361703d27726f756e64272066696c6c3d276e6f6e652720643d274d3137302e3835203138352e3035713020312e372d312e323520322e392d312e3220312e32352d322e3920312e3235742d322e39352d312e3235712d312e322d312e322d312e322d322e3974312e322d322e393571312e32352d312e3220322e39352d312e3220312e37203020322e3920312e3220312e323520312e323520312e323520322e39355a6d32342e322033312e397131382e38323620322e3238392033342e34352033392031332e3430312035312e36343220352037392e356c2d362e3520333220352e35203331712d322e3434332031352e38332d31312e39352031346c2d342e352031332d32342d33342e352d31392d33332d31352e352d3133712d32352e3736322d31342e37342d34312d33382e352d31342e3238342d32332e3336352d31312d35322d2e3039342d32302e38363520352d34302d312e3931352d32322e31353420392e352d34302e3520392e3934352d31362e3535362031382d31386c2d392e352d352e357132312e3737382d322e38342034332e31323520342e3632352032312e33353320372e3435362031392e3337352032382e3337352031302e30333320352e38353920332033332e352d342e342d31382e31352d31362d313820312e3839362d31332e3237352031332d31352e35272f3e3c70617468207374796c653d2766696c7465723a75726c28236229272066696c6c3d27236666662720643d274d3139322e3035203138332e343571312e3937382d32302e39322d31392e342d32382e342d32312e3332322d372e34342d34332e312d342e366c392e3520352e35712d382e30353520312e3434342d31382031382d31312e3431352031382e3334362d392e352034302e352d352e3039342031392e3133352d352034302d332e3238342032382e3633352031312035322031352e3233382032332e37362034312033382e356c31352e352031332031392033332032342033342e3520342e352d313371392e35303720312e38332031312e39352d31346c2d352e352d333120362e352d333271382e3430312d32372e3835382d352d37392e352d31352e3632342d33362e3731312d33342e34352d33392d342e342d31382e31352d31362d313820312e3839362d31332e3237352031332d31352e356d2d32322e34352d312e333571312e323520312e323520312e323520322e3935203020312e372d312e323520322e392d312e3220312e32352d322e3920312e3235742d322e39352d312e3235712d312e322d312e322d312e322d322e3974312e322d322e393571312e32352d312e3220322e39352d312e3220312e37203020322e3920312e325a272f3e3c70617468207374796c653d2766696c7465723a75726c282362292720643d274d3137302e3835203138352e303571302d312e372d312e32352d322e39352d312e322d312e322d322e392d312e32742d322e393520312e32712d312e3220312e32352d312e3220322e3935203020312e3720312e3220322e3920312e323520312e323520322e393520312e323520312e37203020322e392d312e323520312e32352d312e3220312e32352d322e396d382e322031332e397131312e362d2e313520313620313820372e3033332d32372e3634312d332d33332e352d31312e31303420322e3232352d31332031352e355a272066696c6c3d2723303030272f3e3c2f7376673e000000000000000000000000000000000000000000000000000000000000",
        "nonce": "0x179",
        "accessList": []
      },
      "additionalContracts": []
    },
    {
      "hash": "0x1f078e14d7e273a8815a7ffcc8b4430c5a6a12e9bab04cd07c7115a1950e8554",
      "transactionType": "CALL",
      "contractName": "LoveBirds",
      "contractAddress": "0xa136683524271d54b103923b988D9e75C20DEe77",
      "function": "setURI(uint256,bool,string)",
      "arguments": [
        "1",
        "false",
        "<svg xmlns='http://www.w3.org/2000/svg' viewBox='0 0 512 512' style='enable-background:new 0 0 512 512' xml:space='preserve'><path fill='transparent' d='M0-.5h64v64H0Z'/><filter id='a' x='-40%' y='-80%' width='140%' height='140%'><feTurbulence baseFrequency='23' numOctaves='2' result='turbulence'/><feDisplacementMap in2='turbulence' in='SourceGraphic' scale='555'/></filter><filter id='b'><feTurbulence baseFrequency='.99' numOctaves='2' result='turbulence'/><feDisplacementMap in2='turbulence' in='SourceGraphic' scale='3' xChannelSelector='R' yChannelSelector='G'><animate attributeName='scale' values='3;5;3' dur='0.1s' repeatCount='indefinite'/></feDisplacementMap></filter><path fill='#fff' d='M0 0h512v512H0z'/><circle id='c' fill='#000' cx='57' cy='666' r='656' style='filter:url(#a);transform:translateX(540px)'/><use href='#b' stroke='#9FDDFA'><animate attributeName='x' values=';5;2' dur='1s' repeatCount='indefinite'/><animate attributeName='y' values='2;5;2' dur='1s' repeatCount='indefinite'/></use><use href='#c'><animate attributeName='x' values='3;5;2' dur='1s' repeatCount='indefinite'/><animate attributeName='y' values='3;5;2' dur='1s' repeatCount='indefinite'/></use><use href='#c'/><animate attributeName='fill' values='#FAF4A5;#FFE941;#FAF4A5;#FFE941;#FAF4A5;#FFE941;#FAF4A5;#FFE941;#FAF4A5' dur='7s' repeatCount='indefinite'/><path style='filter:url(#b)' fill='black' d='M300.75 185.5q-.17-6.106-5.75-5-5.998 3.125-4.25 6.25 1.812 4.002 5.5 4.25 4.366-1.057 4.5-5.5m27.55-2.95q-1.742-1.914-4.05-3.55-3-1-4 4-11.36 9.875-10.5 12.25.56 5.974 8 9 4.675 1.438 5.2.8l-.2-.8q-.21-4.375-8.5-8.75 8.29 4.375 8.5 8.75l.2.8 2.55 9.7q4.998-3.126 6.85-8.95 3.989-14.478-4.05-23.25Z'/><path style='filter:url(#b)' stroke='#000' stroke-linejoin='round' stroke-linecap='round' fill='#fff' d='m297.45 331.15-23.35-2.35-87.3-5.5-84.55 11.05-29.825-2.95L94 308.05l61.55-15 7.5-55 10-34-15.5 28-9 56.5-48.05 9.5-19-53L97.05 135 74.5 246.05l19.5 53.5-35.05 30.525-67.8-6.725 2.95 67 91.55-24.5h18.25l83.45-11.05h56.9l55.8 7.7 38.7 35.35 9.4 41.45-23.75 30.95 29.25-27.05-9.4-50.85-29.8-32.05 60.2 18.8 57.5-19.9 82.1 36.15-.5-25.5-48.275-18.075L499 309h26v-11h-32l-39.15 49.425-21.7-8.125H380.1l-11.4-1.125m-68.2-4.425q1.831-4.524 5.25-2.5'/><path style='filter:url(#b)' stroke='black' stroke-linejoin='round' stroke-linecap='round' fill='#fff' d='m322.95 205.05 2.55 9.7q4.998-3.126 6.85-8.95 3.989-14.478-4.05-23.25-1.742-1.914-4.05-3.55-3-1-4 4-11.36 9.875-10.5 12.25.56 5.974 8 9 4.675 1.438 5.2.8l-.2-.8q-.21-4.375-8.5-8.75m18.1 10.3q21.217 19.888 30.15 36.45 9.484 15.937 14.5 44 1.405 11.781-1.625 24.45 1.048 6.65-.875 13.3.436 5.297-2.75 11.5l-2.5 1.875-2.45 1.85L356.75 344l-6.25 4-3 8.25-2.5 2.5v8.75l-3-9-5.5-7.25v-6.5h-13.75l-14.25-4.5-8.25 11.25-2.75 13.5-2.75-8q-1.683-6 .85-11.35 5.362-11.188 4.9-11.9l-19.125-16.4-3.625-3.1q-10.191-9.438-15.5-34.5-5.216-11.604.5-26.5v-17q-1.512-19.588 2.75-40 11.842-23.226 19.1-28.15 16.528-11.057 30.1-7.95 13.78 3.28 13.6 22.4m47.075 128.15q-6.31-12.1-7.125-24.2Q356.01 269.612 351 252l-3-11q-1.75-.513-3.5-4.75m-8 108.5q.215-3.874 2.75-5.25 5.767-3.159 8.75-.75.725-3.865 2.55-4.15 6.814-3.785 9.2-.85L363 338l6.25-.625M342 358.5l-2.5-6.5v-4l5.25-2.5q-.28-2.282 3.25-6.75m-6 19.75v-6.75l2.75-6.25M295 180.5q-5.998 3.125-4.25 6.25 1.812 4.002 5.5 4.25 4.366-1.057 4.5-5.5-.17-6.106-5.75-5Zm2.5 184.5q-.92-8.204 0-18.25.763-3.363 2.5-4v-3.5l5.75-8q4.247-3.462 9 0 1.509 2 0 4l-6.25 5M269.75 270q5.198 14.906 6.75 32l4.875 15.35'/></svg>"
      ],
      "rpc": "https://goerli.infura.io/v3/7b27a3339e154d55b4a6bffd0e2cb161",
      "transaction": {
        "type": "0x02",
        "from": "0x66806e42191e65968cd520d2615566e24368ef12",
        "to": "0xa136683524271d54b103923b988d9e75c20dee77",
        "gas": "0x359ab1",
        "value": "0x0",
        "data": "0x68614e840000000000000000000000000000000000000000000000000000000000000001000000000000000000000000000000000000000000000000000000000000000000000000000000000000000000000000000000000000000000000000000000600000000000000000000000000000000000000000000000000000000000000da63c73766720786d6c6e733d27687474703a2f2f7777772e77332e6f72672f323030302f737667272076696577426f783d27302030203531322035313227207374796c653d27656e61626c652d6261636b67726f756e643a6e65772030203020353132203531322720786d6c3a73706163653d277072657365727665273e3c706174682066696c6c3d277472616e73706172656e742720643d274d302d2e3568363476363448305a272f3e3c66696c7465722069643d27612720783d272d3430252720793d272d383025272077696474683d273134302527206865696768743d2731343025273e3c666554757262756c656e636520626173654672657175656e63793d27323327206e756d4f6374617665733d27322720726573756c743d2774757262756c656e6365272f3e3c6665446973706c6163656d656e744d617020696e323d2774757262756c656e63652720696e3d27536f757263654772617068696327207363616c653d27353535272f3e3c2f66696c7465723e3c66696c7465722069643d2762273e3c666554757262756c656e636520626173654672657175656e63793d272e393927206e756d4f6374617665733d27322720726573756c743d2774757262756c656e6365272f3e3c6665446973706c6163656d656e744d617020696e323d2774757262756c656e63652720696e3d27536f757263654772617068696327207363616c653d27332720784368616e6e656c53656c6563746f723d27522720794368616e6e656c53656c6563746f723d2747273e3c616e696d617465206174747269627574654e616d653d277363616c65272076616c7565733d27333b353b3327206475723d27302e31732720726570656174436f756e743d27696e646566696e697465272f3e3c2f6665446973706c6163656d656e744d61703e3c2f66696c7465723e3c706174682066696c6c3d27236666662720643d274d302030683531327635313248307a272f3e3c636972636c652069643d2763272066696c6c3d2723303030272063783d273537272063793d273636362720723d2736353627207374796c653d2766696c7465723a75726c282361293b7472616e73666f726d3a7472616e736c6174655828353430707829272f3e3c75736520687265663d27236227207374726f6b653d2723394644444641273e3c616e696d617465206174747269627574654e616d653d2778272076616c7565733d273b353b3227206475723d2731732720726570656174436f756e743d27696e646566696e697465272f3e3c616e696d617465206174747269627574654e616d653d2779272076616c7565733d27323b353b3227206475723d2731732720726570656174436f756e743d27696e646566696e697465272f3e3c2f7573653e3c75736520687265663d272363273e3c616e696d617465206174747269627574654e616d653d2778272076616c7565733d27333b353b3227206475723d2731732720726570656174436f756e743d27696e646566696e697465272f3e3c616e696d617465206174747269627574654e616d653d2779272076616c7565733d27333b353b3227206475723d2731732720726570656174436f756e743d27696e646566696e697465272f3e3c2f7573653e3c75736520687265663d272363272f3e3c616e696d617465206174747269627574654e616d653d2766696c6c272076616c7565733d27234641463441353b234646453934313b234641463441353b234646453934313b234641463441353b234646453934313b234641463441353b234646453934313b2346414634413527206475723d2737732720726570656174436f756e743d27696e646566696e697465272f3e3c70617468207374796c653d2766696c7465723a75726c28236229272066696c6c3d27626c61636b2720643d274d3330302e3735203138352e35712d2e31372d362e3130362d352e37352d352d352e39393820332e3132352d342e323520362e323520312e38313220342e30303220352e3520342e323520342e3336362d312e30353720342e352d352e356d32372e35352d322e3935712d312e3734322d312e3931342d342e30352d332e35352d332d312d3420342d31312e333620392e3837352d31302e352031322e32352e353620352e3937342038203920342e36373520312e34333820352e322e386c2d2e322d2e38712d2e32312d342e3337352d382e352d382e373520382e323920342e33373520382e3520382e37356c2e322e3820322e353520392e3771342e3939382d332e31323620362e38352d382e393520332e3938392d31342e3437382d342e30352d32332e32355a272f3e3c70617468207374796c653d2766696c7465723a75726c2823622927207374726f6b653d272330303027207374726f6b652d6c696e656a6f696e3d27726f756e6427207374726f6b652d6c696e656361703d27726f756e64272066696c6c3d27236666662720643d276d3239372e3435203333312e31352d32332e33352d322e33352d38372e332d352e352d38342e35352031312e30352d32392e3832352d322e39354c3934203330382e30356c36312e35352d313520372e352d35352031302d33342d31352e352032382d392035362e352d34382e303520392e352d31392d35334c39372e3035203133352037342e35203234362e30356c31392e352035332e352d33352e30352033302e3532352d36372e382d362e37323520322e39352036372039312e35352d32342e356831382e32356c38332e34352d31312e30356835362e396c35352e3820372e372033382e372033352e333520392e342034312e34352d32332e37352033302e39352032392e32352d32372e30352d392e342d35302e38352d32392e382d33322e30352036302e322031382e382035372e352d31392e392038322e312033362e31352d2e352d32352e352d34382e3237352d31382e3037354c34393920333039683236762d3131682d33326c2d33392e31352034392e3432352d32312e372d382e313235483338302e316c2d31312e342d312e3132356d2d36382e322d342e34323571312e3833312d342e35323420352e32352d322e35272f3e3c70617468207374796c653d2766696c7465723a75726c2823622927207374726f6b653d27626c61636b27207374726f6b652d6c696e656a6f696e3d27726f756e6427207374726f6b652d6c696e656361703d27726f756e64272066696c6c3d27236666662720643d276d3332322e3935203230352e303520322e353520392e3771342e3939382d332e31323620362e38352d382e393520332e3938392d31342e3437382d342e30352d32332e32352d312e3734322d312e3931342d342e30352d332e35352d332d312d3420342d31312e333620392e3837352d31302e352031322e32352e353620352e3937342038203920342e36373520312e34333820352e322e386c2d2e322d2e38712d2e32312d342e3337352d382e352d382e37356d31382e312031302e337132312e3231372031392e3838382033302e31352033362e343520392e3438342031352e3933372031342e3520343420312e3430352031312e3738312d312e3632352032342e343520312e30343820362e36352d2e3837352031332e332e34333620352e3239372d322e37352031312e356c2d322e3520312e3837352d322e343520312e38354c3335362e3735203334346c2d362e323520342d3320382e32352d322e3520322e3576382e37356c2d332d392d352e352d372e3235762d362e35682d31332e37356c2d31342e32352d342e352d382e32352031312e32352d322e37352031332e352d322e37352d38712d312e3638332d36202e38352d31312e333520352e3336322d31312e31383820342e392d31312e396c2d31392e3132352d31362e342d332e3632352d332e31712d31302e3139312d392e3433382d31352e352d33342e352d352e3231362d31312e3630342e352d32362e35762d3137712d312e3531322d31392e35383820322e37352d34302031312e3834322d32332e3232362031392e312d32382e31352031362e3532382d31312e3035372033302e312d372e39352031332e373820332e32382031332e362032322e346d34372e303735203132382e3135712d362e33312d31322e312d372e3132352d32342e32513335362e3031203236392e36313220333531203235326c2d332d3131712d312e37352d2e3531332d332e352d342e37356d2d38203130382e35712e3231352d332e38373420322e37352d352e323520352e3736372d332e31353920382e37352d2e37352e3732352d332e38363520322e35352d342e313520362e3831342d332e37383520392e322d2e38354c333633203333386c362e32352d2e3632354d333432203335382e356c2d322e352d362e35762d346c352e32352d322e35712d2e32382d322e32383220332e32352d362e37356d2d362031392e3735762d362e37356c322e37352d362e32354d323935203138302e35712d352e39393820332e3132352d342e323520362e323520312e38313220342e30303220352e3520342e323520342e3336362d312e30353720342e352d352e352d2e31372d362e3130362d352e37352d355a6d322e35203138342e35712d2e39322d382e32303420302d31382e32352e3736332d332e33363320322e352d34762d332e356c352e37352d3871342e3234372d332e3436322039203020312e3530392032203020346c2d362e323520354d3236392e37352032373071352e3139382031342e39303620362e37352033326c342e3837352031352e3335272f3e3c2f7376673e0000000000000000000000000000000000000000000000000000",
        "nonce": "0x17a",
        "accessList": []
      },
      "additionalContracts": []
    },
    {
      "hash": "0x7b02d80458bb0da9650ceb94877121d3ea73d4ec761f1dd582d9e297d390a91e",
      "transactionType": "CALL",
      "contractName": "LoveBirds",
      "contractAddress": "0xa136683524271d54b103923b988D9e75C20DEe77",
      "function": "setURI(uint256,bool,string)",
      "arguments": [
        "0",
        "true",
        "<svg width='512' height='512' viewBox='0 0 512 512' xmlns='http://www.w3.org/2000/svg'><filter id='d'><feTurbulence baseFrequency='.69' result='turbulence'/><feDisplacementMap in2='turbulence' in='SourceGraphic' scale='6.9' xChannelSelector='R' yChannelSelector='G'/></filter><filter id='b'><feTurbulence baseFrequency='.99' result='turbulence'/><feDisplacementMap in2='turbulence' in='SourceGraphic' scale='2' xChannelSelector='R' yChannelSelector='G'><animate attributeName='scale' values='2;5;2' dur='0.1s' repeatCount='indefinite'/></feDisplacementMap></filter><filter id='a'><feTurbulence baseFrequency='.99' numOctaves='2' result='turbulence'/><feDisplacementMap in2='turbulence' in='SourceGraphic' scale='66' xChannelSelector='R' yChannelSelector='G'/></filter><rect width='512' height='512' rx='1' style='filter:url(#)'><animate attributeName='fill' values='#0FB2F2;#41C0F2;#77CFF2;#BDE3F2;#77CFF2;#41C0F2;#0FB2F2' dur='3s' repeatCount='indefinite'/></rect><circle stroke='#E8A904' stroke-width='12' r='100' style='filter:url(#a)' fill='#FFD408'><animate attributeName='r' values='100;130;100' dur='5s' repeatCount='indefinite'/></circle><path style='filter:url(#b)' fill='#978E71' stroke='#000' d='m513.75 369.85-48.275-18.075L499 309h26v-11h-32l-39.15 49.425-21.7-8.125H380.1l-106-10.5-87.3-5.5-84.55 11.05-29.825-2.95L94 308.05l61.55-15 7.5-55 10-34-15.5 28-9 56.5-48.05 9.5-19-53L97.05 135 74.5 246.05l19.5 53.5-35.05 30.525-67.8-6.725 2.95 67 91.55-24.5h18.25l83.45-11.05h56.9l55.8 7.7 38.7 35.35 9.4 41.45-23.75 30.95 29.25-27.05-9.4-50.85-29.8-32.05 60.2 18.8 57.5-19.9 82.1 36.15-.5-25.5Zm-321.55-485q21.25 35.65 19 38.25-2.2 2.6-4.75 5.7-2.6 3.05-6.3 3.05-3.75 0-6.45-2.7-2.6-2.6-2.6-6.35 0-3.75 2.6-6.4 2.7-2.65 6.45-2.65l5.65.05q1.1.25-17.95-31.9h2.2q7.3 2.65 15.2-3.95v4.6q-5.8 3.35-13.1 2'/><path id='c' fill='none' d='M192.15-115.45q7.3 1.35 13.1-2v-4.6q-7.9 6.6-15.2 3.95h-2.2q19.05 32.15 17.95 31.9l-5.65-.05q-3.75 0-6.45 2.65-2.6 2.65-2.6 6.4 0 3.75 2.6 6.35 2.7 2.7 6.45 2.7 3.7 0 6.3-3.05 2.55-3.1 4.75-5.7 2.25-2.6-19-38.25'><animate attributeName='fill' values='#ff00ca;#ff9000;#ff0000;#ff00ca;#b300ff;#00eeff;#0000ff;#fff000;#00ff00' dur='1s' repeatCount='indefinite'/></path><path id='e' stroke='none' stroke-width='1' stroke-linejoin='round' stroke-linecap='round' fill='none' d='M344.2-247.45q7.3 1.35 13.1-2v-4.6q-7.9 6.6-15.2 3.95h-2.2q19.05 32.15 17.95 31.9l-5.65-.05q-3.75 0-6.45 2.65-2.6 2.65-2.6 6.4 0 3.75 2.6 6.35 2.7 2.7 6.45 2.7 3.7 0 6.3-3.05 2.55-3.1 4.75-5.7 2.25-2.6-19-38.25'><animate attributeName='fill' values='#ff00ca;#ff9000;#ff0000;#ff00ca;#b300ff;#00eeff;#0000ff;#fff000;#00ff00' dur='1s' repeatCount='indefinite'/></path><path id='h' style='filter:url(#b)' stroke='#000' d='M197.25 387.2q3.491-5.945 4.55-9.4 4.342 2.453 4.45 7.6 3.654-3.04 3.85-8.75 6.545-10.706 11.05-21.85h-33.8q-2.781 7.997-3.9 18.95-.941 4.104.95 10.65l4-8q-1.62 6.603 0 14.35 2.894-7.977 6.35-7.7l2.5 4.15m82.45-129.4-3.15 7.85-2.1 6.65-3.3 6.65-1.65 8.4-3.05 4.85-2.2 10.2-4 10.65-3.05 10.3 3.85-3.7 6.35-9.65 4.3-10.65 8.7-17.8.4-2.5 1.7-10.2-2.8-11.05m-50.25-81q-10.85 8-15.2 18-4.45 7.1-3.6 13.25-2.65 9.85-1.55 13.8-2.65 4.3-2.9 9.55-4 1.4-7.45 7.6-6.6 9.2-9.95 18.35-7.1 14.05-8.95 27.75-1.55 6.55 0 11.35-4.65 14.8-3.2 28.45H188q5-8.9 7.3-19.6.7 2.25 1.95 3.05 2.65-1.55 2.9-3.1-.45 3.7 1.8 6.25 4.4-4.95 4.3-9.6 0-1.4-.45-2.8.45 1.4.45 2.8.55 1.25 1.7 2.3 6.1-7.9 6.15-18.5v-3.85q1-3.95 3.75-8.05-2.75 4.1-3.75 8.05v3.85q-.05 10.6-6.15 18.5-1.15-1.05-1.7-2.3.1 4.65-4.3 9.6-2.25-2.55-1.8-6.25-.25 1.55-2.9 3.1-1.25-.8-1.95-3.05-2.3 10.7-7.3 19.6h5.95q3.35-.1 4-1.95l2.6 2.9v1.95l6.35-4 2.2 3.15 2.9-2.75 8.2-1.5h2.6l9.55 7.15 2.35-1.8 5.35 2.1 2.5-3.2 4.3 3.2 1.65-4.3 3.85 2.75 1.8-2.35 3.05-2.9 3.05-10.3 4-10.65 2.2-10.2 3.05-4.85 1.65-8.4 3.3-6.65 2.1-6.65 3.15-7.85.7-1.8v-9.4l-7.85-16.6-3.6-5.1 6.6-14.5q-4.45 1.9-7.35 0-5.726-2.749-2.8-11.2-1.983-13.696 8.8-18.2-2.484-2.161-5.65-4.3-4.25-4.15-9.7-5.7-4.25-3.55-10.65-3.15l3.45 2.6h-3.3q-10.9 1.55-18.9 6.35m16.3 18.1q1.4-3.35 4.95-3.3 2.95-.25 3.3 3.3-.15 3.15-3.15 2.8-5.35 0-5.1-2.8Z'><animate attributeName='fill' values='#ff00ca;#b300ff;#0000ff;#00eeff;#00ff00;#fff000;#ff9000;#ff0000;#ff00ca' dur='1.5s' repeatCount='indefinite'/></path><path id='i' style='filter:url(#b)' stroke='#000' fill='#FF0' d='M262.7 326.95v2.65l-3.85 7.15.65 1.15.95 1.65.9-1.95-.9 1.95-3.55 7.3 8.05-8.85 2.2-5.4v-4.95l-6.1-8-3.85 3.7 5.5 3.6m-4.4 2.75-2.5 4.3v3.3l-3 8.3 4.95-7.45 1.75-.25-.65-1.15 3.85-7.15v-2.65l-5.5-3.6-3.05 2.9 4.15 3.45m42.15 4.95q.685 4.165.55 8.1 2.575-3.822 2.65-9.85l-3.2 1.75m-8.95 5.3-3.35-.25q.398 5.75 3.35 10.65-1.163-8.51 0-10.4m5.9-12.85q-.003 2.767 2.1 2.9.604 2.356.95 4.65l3.2-1.75q1.54-2.725 0-6.9l-3.75-2.35q-4.55-1.646-9.1 1.1-2.567 3.122-2.65 7.2-1.431 3.707 0 7.75l3.35.25q1.663-3.185 0-7.7 4.41-.433 5.9-5.15m-65.05 2.75-9.55-7.15h-2.6l8.8 10.2 6.9 4.55-3.55-7.6m-12.15-7.15-8.2 1.5q6.813 2.113 10.95 9.4l3.7 4.55q4.28-.63 6.8 3.85l2.45-4.55-6.9-4.55-8.8-10.2m58.4-115.45-5-3.8q-5-.6-8.2-4.25-2.926 8.451 2.8 11.2 2.9 1.9 7.35 0l3.05-3.15m17.1-7.85q-5.222.275-8.55 3.55l2.05 1.75 4.9 4.15q3.207-4.424 1.6-9.45m-12.05-4.25q-1.444-7.24-9.45-14.15-10.783 4.504-8.8 18.2 3.2 3.65 8.2 4.25l5 3.8 2.35 5.2 2.35-9.25q1.14-4.062.35-8.05m8.8-10.35q-6.112 2.123-8.8 10.35.79 3.988-.35 8.05v6.35q1.405-4.137 3.85-6.6 3.328-3.275 8.55-3.55 1.516-.04 3.2.15 4.62-8.793-6.45-14.75m41.45 169.35-.5 1.95-2.35 9.4h.05l7.2-8.95q-.943-3.133-4.4-2.4m-1-14.9q-2.169-2.499-6.2-1.9-.967 5.475 0 10.95 3.1-8.083 6.2-9.05m5.6-10.65q-.78-.178-1.7-.25-2.103-1.236-4.9 1.45-.84.822-1.75 2-1.33-.481-2.65 1.45-.405.565-.8 1.35-1.459 1.375 0 2.75 4.031-.599 6.2 1.9l1.75-2 .75-.75q-.089.556-.15 1.1-.273 2.031-.3 3.85.027 2.324.45 4.3-.37.155-1 1.3-.655 1.313-1.65 3.85-.369 1.003-.25 2.55.319 3.659.9 2.65l.5-1.95q3.457-.733 4.4 2.4 2.12-2.13 2.4-3.25.652-2.346 1-4.2.403-1.847.5-3.2l1.35-7.2-1.25-6.05q-.624-3.163-3.8-4.05Z'/><path id='f' style='filter:url(#b)' stroke='#000' d='M250.7 191.6q-3.55-.05-4.95 3.3-.25 2.8 5.1 2.8 3 .35 3.15-2.8-.35-3.55-3.3-3.3m68.15 3.7q.895-1.275-2.8-2.05-3.668 1.1-3.3 3.85 1.204 2.215 3.3 1.4 2.657-.736 2.8-3.2Z'/><path id='g' style='filter:url(#b)' stroke='#000' d='M331.1 365.5h-.05l-16.6-5.2-17 1.7q11.204 25.1 14.2 50.2 3.6-9.733 7.2-12.85 7.937 3.775 9.35 12.4 2.746.312 4.85-12.7-1.4-7.49 0-10.5l3.2-21.4-5.15-1.65m34.15-106.2q-4.053-26.591-17.95-30.45-.728-15.925-7.05-32.45-6.559-14.854-21.55-20.7-2.019-3.879 2.4-7l-10.95 5v-.05q-4.034.756 4.8-7.15l-13.7 7.75q-1.791.564-3.4 1.45-6.436 3.209-5.4 9.1 11.07 5.957 6.45 14.75-1.684-.19-3.2-.15 1.607 5.026-1.6 9.45l-4.9-4.15q-.116 10.59 2.15 17.7-8.174 10.574-10.95 24.2v9.4l-.7 1.8 2.8 11.05-1.7 10.2v4.6q-.315 13.128 3.1 25.1 2.81 10.883 6.9 16 4.55-2.746 9.1-1.1l3.75 2.35q1.54 4.175 0 6.9l23.05 1.7q.395-.785.8-1.35 1.32-1.931 2.65-1.45.91-1.178 1.75-2 2.797-2.686 4.9-1.45.92.072 1.7.25 3.176.887 3.8 4.05l1.25 6.05q6.474-4.138 11.2-16.45-.557-1.007 1.5-15.45.209-18.1-2.35-36.2 2.559 18.1 2.35 36.2-2.057 14.443-1.5 15.45.61 1.017 4-12.25 7.028-23.703 6.5-50.7m-49.2-66.05q3.695.775 2.8 2.05-.143 2.464-2.8 3.2-2.096.815-3.3-1.4-.368-2.75 3.3-3.85Z'><animate attributeName='fill' values='#ff00ca;#ff9000;#ff0000;#ff00ca;#b300ff;#00eeff;#0000ff;#fff000;#00ff00' dur='1.5s' repeatCount='indefinite'/></path><use href='#c' style='filter:url(#d)'><animate attributeName='y' values='300;-30' dur='2s' repeatCount='indefinite'/></use><use href='#e' style='filter:url(#d)'><animate attributeName='y' values='470;-30' dur='3.4s' repeatCount='indefinite'/></use><use href='#f' style='filter:url(#d)'><animate attributeName='y' values='4;-4' dur='0.1s' repeatCount='indefinite'/></use><use opacity='.5' href='#g' style='filter:url(#d)'><animate attributeName='x' values='4;-4' dur='0.1s' repeatCount='indefinite'/></use><use opacity='.5' href='#h' style='filter:url(#d)'><animate attributeName='x' values='-4;4' dur='0.1s' repeatCount='indefinite'/></use><use opacity='.5' href='#i' style='filter:url(#d)'><animate attributeName='x' values='4;-4' dur='0.1s' repeatCount='indefinite'/></use></svg>"
      ],
      "rpc": "https://goerli.infura.io/v3/7b27a3339e154d55b4a6bffd0e2cb161",
      "transaction": {
        "type": "0x02",
        "from": "0x66806e42191e65968cd520d2615566e24368ef12",
        "to": "0xa136683524271d54b103923b988d9e75c20dee77",
        "gas": "0x7a0331",
        "value": "0x0",
        "data": "0x68614e840000000000000000000000000000000000000000000000000000000000000000000000000000000000000000000000000000000000000000000000000000000100000000000000000000000000000000000000000000000000000000000000600000000000000000000000000000000000000000000000000000000000001f8d3c7376672077696474683d2735313227206865696768743d27353132272076696577426f783d2730203020353132203531322720786d6c6e733d27687474703a2f2f7777772e77332e6f72672f323030302f737667273e3c66696c7465722069643d2764273e3c666554757262756c656e636520626173654672657175656e63793d272e36392720726573756c743d2774757262756c656e6365272f3e3c6665446973706c6163656d656e744d617020696e323d2774757262756c656e63652720696e3d27536f757263654772617068696327207363616c653d27362e392720784368616e6e656c53656c6563746f723d27522720794368616e6e656c53656c6563746f723d2747272f3e3c2f66696c7465723e3c66696c7465722069643d2762273e3c666554757262756c656e636520626173654672657175656e63793d272e39392720726573756c743d2774757262756c656e6365272f3e3c6665446973706c6163656d656e744d617020696e323d2774757262756c656e63652720696e3d27536f757263654772617068696327207363616c653d27322720784368616e6e656c53656c6563746f723d27522720794368616e6e656c53656c6563746f723d2747273e3c616e696d617465206174747269627574654e616d653d277363616c65272076616c7565733d27323b353b3227206475723d27302e31732720726570656174436f756e743d27696e646566696e697465272f3e3c2f6665446973706c6163656d656e744d61703e3c2f66696c7465723e3c66696c7465722069643d2761273e3c666554757262756c656e636520626173654672657175656e63793d272e393927206e756d4f6374617665733d27322720726573756c743d2774757262756c656e6365272f3e3c6665446973706c6163656d656e744d617020696e323d2774757262756c656e63652720696e3d27536f757263654772617068696327207363616c653d2736362720784368616e6e656c53656c6563746f723d27522720794368616e6e656c53656c6563746f723d2747272f3e3c2f66696c7465723e3c726563742077696474683d2735313227206865696768743d27353132272072783d273127207374796c653d2766696c7465723a75726c282329273e3c616e696d617465206174747269627574654e616d653d2766696c6c272076616c7565733d27233046423246323b233431433046323b233737434646323b234244453346323b233737434646323b233431433046323b2330464232463227206475723d2733732720726570656174436f756e743d27696e646566696e697465272f3e3c2f726563743e3c636972636c65207374726f6b653d272345384139303427207374726f6b652d77696474683d2731322720723d2731303027207374796c653d2766696c7465723a75726c28236129272066696c6c3d2723464644343038273e3c616e696d617465206174747269627574654e616d653d2772272076616c7565733d273130303b3133303b31303027206475723d2735732720726570656174436f756e743d27696e646566696e697465272f3e3c2f636972636c653e3c70617468207374796c653d2766696c7465723a75726c28236229272066696c6c3d272339373845373127207374726f6b653d27233030302720643d276d3531332e3735203336392e38352d34382e3237352d31382e3037354c34393920333039683236762d3131682d33326c2d33392e31352034392e3432352d32312e372d382e313235483338302e316c2d3130362d31302e352d38372e332d352e352d38342e35352031312e30352d32392e3832352d322e39354c3934203330382e30356c36312e35352d313520372e352d35352031302d33342d31352e352032382d392035362e352d34382e303520392e352d31392d35334c39372e3035203133352037342e35203234362e30356c31392e352035332e352d33352e30352033302e3532352d36372e382d362e37323520322e39352036372039312e35352d32342e356831382e32356c38332e34352d31312e30356835362e396c35352e3820372e372033382e372033352e333520392e342034312e34352d32332e37352033302e39352032392e32352d32372e30352d392e342d35302e38352d32392e382d33322e30352036302e322031382e382035372e352d31392e392038322e312033362e31352d2e352d32352e355a6d2d3332312e35352d3438357132312e32352033352e36352031392033382e32352d322e3220322e362d342e373520352e372d322e3620332e30352d362e3320332e30352d332e373520302d362e34352d322e372d322e362d322e362d322e362d362e333520302d332e373520322e362d362e3420322e372d322e363520362e34352d322e36356c352e36352e303571312e312e32352d31372e39352d33312e3968322e3271372e3320322e36352031352e322d332e393576342e36712d352e3820332e33352d31332e312032272f3e3c706174682069643d2763272066696c6c3d276e6f6e652720643d274d3139322e31352d3131352e343571372e3320312e33352031332e312d32762d342e36712d372e3920362e362d31352e3220332e3935682d322e327131392e30352033322e31352031372e39352033312e396c2d352e36352d2e3035712d332e373520302d362e343520322e36352d322e3620322e36352d322e3620362e34203020332e373520322e3620362e333520322e3720322e3720362e343520322e3720332e37203020362e332d332e303520322e35352d332e3120342e37352d352e3720322e32352d322e362d31392d33382e3235273e3c616e696d617465206174747269627574654e616d653d2766696c6c272076616c7565733d27236666303063613b236666393030303b236666303030303b236666303063613b236233303066663b233030656566663b233030303066663b236666663030303b2330306666303027206475723d2731732720726570656174436f756e743d27696e646566696e697465272f3e3c2f706174683e3c706174682069643d276527207374726f6b653d276e6f6e6527207374726f6b652d77696474683d273127207374726f6b652d6c696e656a6f696e3d27726f756e6427207374726f6b652d6c696e656361703d27726f756e64272066696c6c3d276e6f6e652720643d274d3334342e322d3234372e343571372e3320312e33352031332e312d32762d342e36712d372e3920362e362d31352e3220332e3935682d322e327131392e30352033322e31352031372e39352033312e396c2d352e36352d2e3035712d332e373520302d362e343520322e36352d322e3620322e36352d322e3620362e34203020332e373520322e3620362e333520322e3720322e3720362e343520322e3720332e37203020362e332d332e303520322e35352d332e3120342e37352d352e3720322e32352d322e362d31392d33382e3235273e3c616e696d617465206174747269627574654e616d653d2766696c6c272076616c7565733d27236666303063613b236666393030303b236666303030303b236666303063613b236233303066663b233030656566663b233030303066663b236666663030303b2330306666303027206475723d2731732720726570656174436f756e743d27696e646566696e697465272f3e3c2f706174683e3c706174682069643d276827207374796c653d2766696c7465723a75726c2823622927207374726f6b653d27233030302720643d274d3139372e3235203338372e3271332e3439312d352e39343520342e35352d392e3420342e33343220322e34353320342e343520372e3620332e3635342d332e303420332e38352d382e373520362e3534352d31302e3730362031312e30352d32312e3835682d33332e38712d322e37383120372e3939372d332e392031382e39352d2e39343120342e3130342e39352031302e36356c342d38712d312e363220362e36303320302031342e333520322e3839342d372e39373720362e33352d372e376c322e3520342e31356d38322e34352d3132392e342d332e313520372e38352d322e3120362e36352d332e3320362e36352d312e363520382e342d332e303520342e38352d322e322031302e322d342031302e36352d332e30352031302e3320332e38352d332e3720362e33352d392e363520342e332d31302e363520382e372d31372e382e342d322e3520312e372d31302e322d322e382d31312e30356d2d35302e32352d3831712d31302e383520382d31352e322031382d342e343520372e312d332e362031332e32352d322e363520392e38352d312e35352031332e382d322e363520342e332d322e3920392e35352d3420312e342d372e343520372e362d362e3620392e322d392e39352031382e33352d372e312031342e30352d382e39352032372e37352d312e353520362e353520302031312e33352d342e36352031342e382d332e322032382e34354831383871352d382e3920372e332d31392e362e3720322e323520312e393520332e303520322e36352d312e353520322e392d332e312d2e343520332e3720312e3820362e323520342e342d342e393520342e332d392e3620302d312e342d2e34352d322e382e343520312e342e343520322e382e353520312e323520312e3720322e3320362e312d372e3920362e31352d31382e35762d332e383571312d332e393520332e37352d382e30352d322e373520342e312d332e373520382e303576332e3835712d2e30352031302e362d362e31352031382e352d312e31352d312e30352d312e372d322e332e3120342e36352d342e3320392e362d322e32352d322e35352d312e382d362e32352d2e323520312e35352d322e3920332e312d312e32352d2e382d312e39352d332e30352d322e332031302e372d372e332031392e3668352e393571332e33352d2e3120342d312e39356c322e3620322e3976312e39356c362e33352d3420322e3220332e313520322e392d322e373520382e322d312e3568322e366c392e353520372e313520322e33352d312e3820352e333520322e3120322e352d332e3220342e3320332e3220312e36352d342e3320332e383520322e373520312e382d322e333520332e30352d322e3920332e30352d31302e3320342d31302e363520322e322d31302e3220332e30352d342e383520312e36352d382e3420332e332d362e363520322e312d362e363520332e31352d372e38352e372d312e38762d392e346c2d372e38352d31362e362d332e362d352e3120362e362d31342e35712d342e343520312e392d372e333520302d352e3732362d322e3734392d322e382d31312e322d312e3938332d31332e36393620382e382d31382e322d322e3438342d322e3136312d352e36352d342e332d342e32352d342e31352d392e372d352e372d342e32352d332e35352d31302e36352d332e31356c332e343520322e36682d332e33712d31302e3920312e35352d31382e3920362e33356d31362e332031382e3171312e342d332e333520342e39352d332e3320322e39352d2e323520332e3320332e332d2e313520332e31352d332e313520322e382d352e333520302d352e312d322e385a273e3c616e696d617465206174747269627574654e616d653d2766696c6c272076616c7565733d27236666303063613b236233303066663b233030303066663b233030656566663b233030666630303b236666663030303b236666393030303b236666303030303b2366663030636127206475723d27312e35732720726570656174436f756e743d27696e646566696e697465272f3e3c2f706174683e3c706174682069643d276927207374796c653d2766696c7465723a75726c2823622927207374726f6b653d2723303030272066696c6c3d27234646302720643d274d3236322e37203332362e393576322e36356c2d332e383520372e31352e363520312e31352e393520312e36352e392d312e39352d2e3920312e39352d332e353520372e3320382e30352d382e383520322e322d352e34762d342e39356c2d362e312d382d332e383520332e3720352e3520332e366d2d342e3420322e37352d322e3520342e3376332e336c2d3320382e3320342e39352d372e343520312e37352d2e32352d2e36352d312e313520332e38352d372e3135762d322e36356c2d352e352d332e362d332e303520322e3920342e313520332e34356d34322e313520342e3935712e36383520342e3136352e353520382e3120322e3537352d332e38323220322e36352d392e38356c2d332e3220312e37356d2d382e393520352e332d332e33352d2e3235712e33393820352e373520332e33352031302e36352d312e3136332d382e353120302d31302e346d352e392d31322e3835712d2e30303320322e37363720322e3120322e392e36303420322e3335362e393520342e36356c332e322d312e373571312e35342d322e37323520302d362e396c2d332e37352d322e3335712d342e35352d312e3634362d392e3120312e312d322e35363720332e3132322d322e363520372e322d312e34333120332e373037203020372e37356c332e33352e323571312e3636332d332e31383520302d372e3720342e34312d2e34333320352e392d352e31356d2d36352e303520322e37352d392e35352d372e3135682d322e366c382e382031302e3220362e3920342e35352d332e35352d372e366d2d31322e31352d372e31352d382e3220312e3571362e38313320322e3131332031302e393520392e346c332e3720342e353571342e32382d2e363320362e3820332e38356c322e34352d342e35352d362e392d342e35352d382e382d31302e326d35382e342d3131352e34352d352d332e38712d352d2e362d382e322d342e32352d322e39323620382e34353120322e382031312e3220322e3920312e3920372e333520306c332e30352d332e31356d31372e312d372e3835712d352e3232322e3237352d382e353520332e35356c322e303520312e373520342e3920342e313571332e3230372d342e34323420312e362d392e34356d2d31322e30352d342e3235712d312e3434342d372e32342d392e34352d31342e31352d31302e37383320342e3530342d382e382031382e3220332e3220332e363520382e3220342e32356c3520332e3820322e333520352e3220322e33352d392e323571312e31342d342e3036322e33352d382e30356d382e382d31302e3335712d362e31313220322e3132332d382e382031302e33352e373920332e3938382d2e333520382e303576362e333571312e3430352d342e31333720332e38352d362e3620332e3332382d332e32373520382e35352d332e353520312e3531362d2e303420332e322e313520342e36322d382e3739332d362e34352d31342e37356d34312e3435203136392e33352d2e3520312e39352d322e333520392e34682e30356c372e322d382e3935712d2e3934332d332e3133332d342e342d322e346d2d312d31342e39712d322e3136392d322e3439392d362e322d312e392d2e39363720352e34373520302031302e393520332e312d382e30383320362e322d392e30356d352e362d31302e3635712d2e37382d2e3137382d312e372d2e32352d322e3130332d312e3233362d342e3920312e34352d2e38342e3832322d312e373520322d312e33332d2e3438312d322e363520312e34352d2e3430352e3536352d2e3820312e33352d312e34353920312e333735203020322e373520342e3033312d2e35393920362e3220312e396c312e37352d32202e37352d2e3735712d2e3038392e3535362d2e313520312e312d2e32373320322e3033312d2e3320332e38352e30323720322e3332342e343520342e332d2e33372e3135352d3120312e332d2e36353520312e3331332d312e363520332e38352d2e33363920312e3030332d2e323520322e35352e33313920332e3635392e3920322e36356c2e352d312e393571332e3435372d2e37333320342e3420322e3420322e31322d322e313320322e342d332e32352e3635322d322e33343620312d342e322e3430332d312e3834372e352d332e326c312e33352d372e322d312e32352d362e3035712d2e3632342d332e3136332d332e382d342e30355a272f3e3c706174682069643d276627207374796c653d2766696c7465723a75726c2823622927207374726f6b653d27233030302720643d274d3235302e37203139312e36712d332e35352d2e30352d342e393520332e332d2e323520322e3820352e3120322e382033202e333520332e31352d322e382d2e33352d332e35352d332e332d332e336d36382e313520332e37712e3839352d312e3237352d322e382d322e30352d332e36363820312e312d332e3320332e383520312e32303420322e32313520332e3320312e3420322e3635372d2e37333620322e382d332e325a272f3e3c706174682069643d276727207374796c653d2766696c7465723a75726c2823622927207374726f6b653d27233030302720643d274d3333312e31203336352e35682d2e30356c2d31362e362d352e322d313720312e377131312e3230342032352e312031342e322035302e3220332e362d392e37333320372e322d31322e383520372e39333720332e37373520392e33352031322e3420322e3734362e33313220342e38352d31322e372d312e342d372e343920302d31302e356c332e322d32312e342d352e31352d312e36356d33342e31352d3130362e32712d342e3035332d32362e3539312d31372e39352d33302e34352d2e3732382d31352e3932352d372e30352d33322e34352d362e3535392d31342e3835342d32312e35352d32302e372d322e3031392d332e38373920322e342d376c2d31302e39352035762d2e3035712d342e3033342e37353620342e382d372e31356c2d31332e3720372e3735712d312e3739312e3536342d332e3420312e34352d362e34333620332e3230392d352e3420392e312031312e303720352e39353720362e34352031342e37352d312e3638342d2e31392d332e322d2e313520312e36303720352e3032362d312e3620392e34356c2d342e392d342e3135712d2e3131362031302e353920322e31352031372e372d382e3137342031302e3537342d31302e39352032342e3276392e346c2d2e3720312e3820322e382031312e30352d312e372031302e3276342e36712d2e3331352031332e31323820332e312032352e3120322e38312031302e38383320362e3920313620342e35352d322e37343620392e312d312e316c332e373520322e333571312e353420342e313735203020362e396c32332e303520312e37712e3339352d2e3738352e382d312e333520312e33322d312e39333120322e36352d312e34352e39312d312e31373820312e37352d3220322e3739372d322e36383620342e392d312e34352e39322e30373220312e372e323520332e3137362e38383720332e3820342e30356c312e323520362e303571362e3437342d342e3133382031312e322d31362e34352d2e3535372d312e30303720312e352d31352e34352e3230392d31382e312d322e33352d33362e3220322e3535392031382e3120322e33352033362e322d322e3035372031342e3434332d312e352031352e34352e363120312e30313720342d31322e323520372e3032382d32332e37303320362e352d35302e376d2d34392e322d36362e303571332e3639352e37373520322e3820322e30352d2e31343320322e3436342d322e3820332e322d322e3039362e3831352d332e332d312e342d2e3336382d322e373520332e332d332e38355a273e3c616e696d617465206174747269627574654e616d653d2766696c6c272076616c7565733d27236666303063613b236666393030303b236666303030303b236666303063613b236233303066663b233030656566663b233030303066663b236666663030303b2330306666303027206475723d27312e35732720726570656174436f756e743d27696e646566696e697465272f3e3c2f706174683e3c75736520687265663d27236327207374796c653d2766696c7465723a75726c28236429273e3c616e696d617465206174747269627574654e616d653d2779272076616c7565733d273330303b2d333027206475723d2732732720726570656174436f756e743d27696e646566696e697465272f3e3c2f7573653e3c75736520687265663d27236527207374796c653d2766696c7465723a75726c28236429273e3c616e696d617465206174747269627574654e616d653d2779272076616c7565733d273437303b2d333027206475723d27332e34732720726570656174436f756e743d27696e646566696e697465272f3e3c2f7573653e3c75736520687265663d27236627207374796c653d2766696c7465723a75726c28236429273e3c616e696d617465206174747269627574654e616d653d2779272076616c7565733d27343b2d3427206475723d27302e31732720726570656174436f756e743d27696e646566696e697465272f3e3c2f7573653e3c757365206f7061636974793d272e352720687265663d27236727207374796c653d2766696c7465723a75726c28236429273e3c616e696d617465206174747269627574654e616d653d2778272076616c7565733d27343b2d3427206475723d27302e31732720726570656174436f756e743d27696e646566696e697465272f3e3c2f7573653e3c757365206f7061636974793d272e352720687265663d27236827207374796c653d2766696c7465723a75726c28236429273e3c616e696d617465206174747269627574654e616d653d2778272076616c7565733d272d343b3427206475723d27302e31732720726570656174436f756e743d27696e646566696e697465272f3e3c2f7573653e3c757365206f7061636974793d272e352720687265663d27236927207374796c653d2766696c7465723a75726c28236429273e3c616e696d617465206174747269627574654e616d653d2778272076616c7565733d27343b2d3427206475723d27302e31732720726570656174436f756e743d27696e646566696e697465272f3e3c2f7573653e3c2f7376673e00000000000000000000000000000000000000",
        "nonce": "0x17b",
        "accessList": []
      },
      "additionalContracts": []
    },
    {
      "hash": "0x2b219d83cc6b9daf9105863e0866457a82a7d713bacdec4dff4c12cbc2d91dc3",
      "transactionType": "CALL",
      "contractName": "LoveBirds",
      "contractAddress": "0xa136683524271d54b103923b988D9e75C20DEe77",
      "function": "setURI(uint256,bool,string)",
      "arguments": [
        "1",
        "true",
        "<svg xmlns='http://www.w3.org/2000/svg' viewBox='0 0 512 512' style='enable-background:new 0 0 512 512' xml:space='preserve'><path fill='transparent' d='M0-.5h64v64H0Z'/><filter id='a' x='-40%' y='-80%' width='140%' height='140%'><feTurbulence baseFrequency='23' numOctaves='2' result='turbulence'/><feDisplacementMap in2='turbulence' in='SourceGraphic' scale='555'/></filter><filter id='b'><feTurbulence baseFrequency='.99' numOctaves='2' result='turbulence'/><feDisplacementMap in2='turbulence' in='SourceGraphic' scale='3' xChannelSelector='R' yChannelSelector='G'><animate attributeName='scale' values='3;5;3' dur='0.1s' repeatCount='indefinite'/></feDisplacementMap></filter><path fill='#fff' d='M0 0h512v512H0z'/><circle id='c' fill='#000' cx='57' cy='766' r='656' style='filter:url(#a)'/><use href='#b' stroke='#9FDDFA'><animate attributeName='x' values=';5;2' dur='1s' repeatCount='indefinite'/><animate attributeName='y' values='2;5;2' dur='1s' repeatCount='indefinite'/></use><use href='#c'><animate attributeName='x' values='3;5;2' dur='1s' repeatCount='indefinite'/><animate attributeName='y' values='3;5;2' dur='1s' repeatCount='indefinite'/></use><use href='#c'/><animate attributeName='fill' values='#FAF4A5;#FFE941;#FAF4A5;#FFE941;#FAF4A5;#FFE941;#FAF4A5;#FFE941;#FAF4A5' dur='7s' repeatCount='indefinite'/><path style='filter:url(#b)' stroke='#000' stroke-linejoin='round' stroke-linecap='round' fill='#fff' d='M-10.6 481.15 141.95 358.4l86.7 7.15 89.45 51.7 29.1 68.2-22-70.25-75.95-49.1 115-25.45 65.3 32.7 112.9-118.7L427.4 363.4l-60.35-29.9-115.7 21.35h-23.5l-75.1-7.15 93-46.9 29.75 9.3 230.05-103.65h33.65v-16.4h-41.45l-218 97.35-31.85-8.6-115.85 51.95-150.35 116.3v42.55l7.7-8.45Z'/></svg>"
      ],
      "rpc": "https://goerli.infura.io/v3/7b27a3339e154d55b4a6bffd0e2cb161",
      "transaction": {
        "type": "0x02",
        "from": "0x66806e42191e65968cd520d2615566e24368ef12",
        "to": "0xa136683524271d54b103923b988d9e75c20dee77",
        "gas": "0x1ad19c",
        "value": "0x0",
        "data": "0x68614e8400000000000000000000000000000000000000000000000000000000000000010000000000000000000000000000000000000000000000000000000000000001000000000000000000000000000000000000000000000000000000000000006000000000000000000000000000000000000000000000000000000000000006b13c73766720786d6c6e733d27687474703a2f2f7777772e77332e6f72672f323030302f737667272076696577426f783d27302030203531322035313227207374796c653d27656e61626c652d6261636b67726f756e643a6e65772030203020353132203531322720786d6c3a73706163653d277072657365727665273e3c706174682066696c6c3d277472616e73706172656e742720643d274d302d2e3568363476363448305a272f3e3c66696c7465722069643d27612720783d272d3430252720793d272d383025272077696474683d273134302527206865696768743d2731343025273e3c666554757262756c656e636520626173654672657175656e63793d27323327206e756d4f6374617665733d27322720726573756c743d2774757262756c656e6365272f3e3c6665446973706c6163656d656e744d617020696e323d2774757262756c656e63652720696e3d27536f757263654772617068696327207363616c653d27353535272f3e3c2f66696c7465723e3c66696c7465722069643d2762273e3c666554757262756c656e636520626173654672657175656e63793d272e393927206e756d4f6374617665733d27322720726573756c743d2774757262756c656e6365272f3e3c6665446973706c6163656d656e744d617020696e323d2774757262756c656e63652720696e3d27536f757263654772617068696327207363616c653d27332720784368616e6e656c53656c6563746f723d27522720794368616e6e656c53656c6563746f723d2747273e3c616e696d617465206174747269627574654e616d653d277363616c65272076616c7565733d27333b353b3327206475723d27302e31732720726570656174436f756e743d27696e646566696e697465272f3e3c2f6665446973706c6163656d656e744d61703e3c2f66696c7465723e3c706174682066696c6c3d27236666662720643d274d302030683531327635313248307a272f3e3c636972636c652069643d2763272066696c6c3d2723303030272063783d273537272063793d273736362720723d2736353627207374796c653d2766696c7465723a75726c28236129272f3e3c75736520687265663d27236227207374726f6b653d2723394644444641273e3c616e696d617465206174747269627574654e616d653d2778272076616c7565733d273b353b3227206475723d2731732720726570656174436f756e743d27696e646566696e697465272f3e3c616e696d617465206174747269627574654e616d653d2779272076616c7565733d27323b353b3227206475723d2731732720726570656174436f756e743d27696e646566696e697465272f3e3c2f7573653e3c75736520687265663d272363273e3c616e696d617465206174747269627574654e616d653d2778272076616c7565733d27333b353b3227206475723d2731732720726570656174436f756e743d27696e646566696e697465272f3e3c616e696d617465206174747269627574654e616d653d2779272076616c7565733d27333b353b3227206475723d2731732720726570656174436f756e743d27696e646566696e697465272f3e3c2f7573653e3c75736520687265663d272363272f3e3c616e696d617465206174747269627574654e616d653d2766696c6c272076616c7565733d27234641463441353b234646453934313b234641463441353b234646453934313b234641463441353b234646453934313b234641463441353b234646453934313b2346414634413527206475723d2737732720726570656174436f756e743d27696e646566696e697465272f3e3c70617468207374796c653d2766696c7465723a75726c2823622927207374726f6b653d272330303027207374726f6b652d6c696e656a6f696e3d27726f756e6427207374726f6b652d6c696e656361703d27726f756e64272066696c6c3d27236666662720643d274d2d31302e36203438312e3135203134312e3935203335382e346c38362e3720372e31352038392e34352035312e372032392e312036382e322d32322d37302e32352d37352e39352d34392e31203131352d32352e34352036352e332033322e37203131322e392d3131382e374c3432372e34203336332e346c2d36302e33352d32392e392d3131352e372032312e3335682d32332e356c2d37352e312d372e31352039332d34362e392032392e373520392e33203233302e30352d3130332e36356833332e3635762d31362e34682d34312e34356c2d3231382039372e33352d33312e38352d382e362d3131352e38352035312e39352d3135302e3335203131362e337634322e35356c372e372d382e34355a272f3e3c2f7376673e000000000000000000000000000000",
        "nonce": "0x17c",
        "accessList": []
      },
      "additionalContracts": []
    },
    {
      "hash": "0xd50424b8dfd045734529637216803d9e9efc03dd12e7d5ca46da96508a0bdb7a",
      "transactionType": "CALL",
      "contractName": "LoveBirds",
      "contractAddress": "0xa136683524271d54b103923b988D9e75C20DEe77",
      "function": "mint(address)",
      "arguments": [
        "0x66806e42191E65968Cd520D2615566E24368Ef12"
      ],
      "rpc": "https://goerli.infura.io/v3/7b27a3339e154d55b4a6bffd0e2cb161",
      "transaction": {
        "type": "0x02",
        "from": "0x66806e42191e65968cd520d2615566e24368ef12",
        "to": "0xa136683524271d54b103923b988d9e75c20dee77",
        "gas": "0x2153a",
        "value": "0x0",
        "data": "0x6a62784200000000000000000000000066806e42191e65968cd520d2615566e24368ef12",
        "nonce": "0x17d",
        "accessList": []
      },
      "additionalContracts": []
    },
    {
      "hash": "0x54cf1d4affd6f9cf6d8c159fd6f919c840ceb97ff4f45f7dc35d90c60da952b4",
      "transactionType": "CALL",
      "contractName": "LoveBirds",
      "contractAddress": "0xa136683524271d54b103923b988D9e75C20DEe77",
      "function": "mint(address)",
      "arguments": [
        "0x66806e42191E65968Cd520D2615566E24368Ef12"
      ],
      "rpc": "https://goerli.infura.io/v3/7b27a3339e154d55b4a6bffd0e2cb161",
      "transaction": {
        "type": "0x02",
        "from": "0x66806e42191e65968cd520d2615566e24368ef12",
        "to": "0xa136683524271d54b103923b988d9e75c20dee77",
        "gas": "0x13fbf",
        "value": "0x0",
        "data": "0x6a62784200000000000000000000000066806e42191e65968cd520d2615566e24368ef12",
        "nonce": "0x17e",
        "accessList": []
      },
      "additionalContracts": []
    }
  ],
  "receipts": [
    {
      "transactionHash": "0x8ea20e72b689ca5fed8984513329f520b9a5b897c4ffa4f7afd06415c5d79c3d",
      "transactionIndex": "0x2",
      "blockHash": "0xf118746c2fdbdd1046efa98d839aadd5ceac888dea229955bfcc0c7f8afdba9c",
      "blockNumber": "0x80fd42",
      "from": "0x66806e42191E65968Cd520D2615566E24368Ef12",
      "to": null,
      "cumulativeGasUsed": "0x1b903ac",
      "gasUsed": "0x1fb628",
      "contractAddress": "0xa136683524271d54b103923b988D9e75C20DEe77",
      "logs": [
        {
          "address": "0x000000000000AAeB6D7670E522A718067333cd4E",
          "topics": [
            "0x86d03f430c7616021073d7a71766f632f1ce19f289aa989534d9f4732253eb59",
            "0x000000000000000000000000a136683524271d54b103923b988d9e75c20dee77",
            "0x0000000000000000000000000000000000000000000000000000000000000001"
          ],
          "data": "0x",
          "blockHash": "0xf118746c2fdbdd1046efa98d839aadd5ceac888dea229955bfcc0c7f8afdba9c",
          "blockNumber": "0x80fd42",
          "transactionHash": "0x8ea20e72b689ca5fed8984513329f520b9a5b897c4ffa4f7afd06415c5d79c3d",
          "transactionIndex": "0x2",
          "logIndex": "0x1",
          "removed": false
        },
        {
          "address": "0x000000000000AAeB6D7670E522A718067333cd4E",
          "topics": [
            "0x0038c54977604f1a5c0a3604cbbecd0153c81e3131799ead95755e8bb5d5b9e8",
            "0x000000000000000000000000a136683524271d54b103923b988d9e75c20dee77",
            "0x0000000000000000000000003cc6cdda760b79bafa08df41ecfa224f810dceb6",
            "0x0000000000000000000000000000000000000000000000000000000000000001"
          ],
          "data": "0x",
          "blockHash": "0xf118746c2fdbdd1046efa98d839aadd5ceac888dea229955bfcc0c7f8afdba9c",
          "blockNumber": "0x80fd42",
          "transactionHash": "0x8ea20e72b689ca5fed8984513329f520b9a5b897c4ffa4f7afd06415c5d79c3d",
          "transactionIndex": "0x2",
          "logIndex": "0x2",
          "removed": false
        }
      ],
      "status": "0x1",
      "logsBloom": "0x00000000000000000000000000000000000000000800000000000000100000000000000000000000000000000000000000000000000004000000000000040000000080000000000000000000001000000000000000040000000000000000000008000000000020000000000000000000000000004000000000000000000000000000000000000000000000000000000000000000000000000000000000000000000000000000000000000000000000000000000000000000000000000420000000000000004000000000000000000200000000000000000000000000000040000000080000000040000000200000000000000000000000000000000000000000",
      "type": "0x2",
      "effectiveGasPrice": "0xb2d05e11"
    },
    {
      "transactionHash": "0xc0fd5db7d93023389cf2e419194a0721fae774cd185dcb82368a0b84e02bd21f",
      "transactionIndex": "0x1",
      "blockHash": "0xf10c30528ee35cc18056ecf82b048cb3187067e0b9fbf7ab9a70b91d3ef721d9",
      "blockNumber": "0x80fd43",
      "from": "0x66806e42191E65968Cd520D2615566E24368Ef12",
      "to": "0xa136683524271d54b103923b988D9e75C20DEe77",
      "cumulativeGasUsed": "0x22478a",
      "gasUsed": "0x21f582",
      "contractAddress": null,
      "logs": [],
      "status": "0x1",
      "logsBloom": "0x00000000000000000000000000000000000000000000000000000000000000000000000000000000000000000000000000000000000000000000000000000000000000000000000000000000000000000000000000000000000000000000000000000000000000000000000000000000000000000000000000000000000000000000000000000000000000000000000000000000000000000000000000000000000000000000000000000000000000000000000000000000000000000000000000000000000000000000000000000000000000000000000000000000000000000000000000000000000000000000000000000000000000000000000000000000",
      "type": "0x2",
      "effectiveGasPrice": "0xb2d05e13"
    },
    {
      "transactionHash": "0x1f078e14d7e273a8815a7ffcc8b4430c5a6a12e9bab04cd07c7115a1950e8554",
      "transactionIndex": "0x2",
      "blockHash": "0xf10c30528ee35cc18056ecf82b048cb3187067e0b9fbf7ab9a70b91d3ef721d9",
      "blockNumber": "0x80fd43",
      "from": "0x66806e42191E65968Cd520D2615566E24368Ef12",
      "to": "0xa136683524271d54b103923b988D9e75C20DEe77",
      "cumulativeGasUsed": "0x491686",
      "gasUsed": "0x26cefc",
      "contractAddress": null,
      "logs": [],
      "status": "0x1",
      "logsBloom": "0x00000000000000000000000000000000000000000000000000000000000000000000000000000000000000000000000000000000000000000000000000000000000000000000000000000000000000000000000000000000000000000000000000000000000000000000000000000000000000000000000000000000000000000000000000000000000000000000000000000000000000000000000000000000000000000000000000000000000000000000000000000000000000000000000000000000000000000000000000000000000000000000000000000000000000000000000000000000000000000000000000000000000000000000000000000000",
      "type": "0x2",
      "effectiveGasPrice": "0xb2d05e13"
    },
    {
      "transactionHash": "0x7b02d80458bb0da9650ceb94877121d3ea73d4ec761f1dd582d9e297d390a91e",
      "transactionIndex": "0x3",
      "blockHash": "0xf10c30528ee35cc18056ecf82b048cb3187067e0b9fbf7ab9a70b91d3ef721d9",
      "blockNumber": "0x80fd43",
      "from": "0x66806e42191E65968Cd520D2615566E24368Ef12",
      "to": "0xa136683524271d54b103923b988D9e75C20DEe77",
      "cumulativeGasUsed": "0xa16c3d",
      "gasUsed": "0x5855b7",
      "contractAddress": null,
      "logs": [],
      "status": "0x1",
      "logsBloom": "0x00000000000000000000000000000000000000000000000000000000000000000000000000000000000000000000000000000000000000000000000000000000000000000000000000000000000000000000000000000000000000000000000000000000000000000000000000000000000000000000000000000000000000000000000000000000000000000000000000000000000000000000000000000000000000000000000000000000000000000000000000000000000000000000000000000000000000000000000000000000000000000000000000000000000000000000000000000000000000000000000000000000000000000000000000000000",
      "type": "0x2",
      "effectiveGasPrice": "0xb2d05e13"
    },
    {
      "transactionHash": "0x2b219d83cc6b9daf9105863e0866457a82a7d713bacdec4dff4c12cbc2d91dc3",
      "transactionIndex": "0x4",
      "blockHash": "0xf10c30528ee35cc18056ecf82b048cb3187067e0b9fbf7ab9a70b91d3ef721d9",
      "blockNumber": "0x80fd43",
      "from": "0x66806e42191E65968Cd520D2615566E24368Ef12",
      "to": "0xa136683524271d54b103923b988D9e75C20DEe77",
      "cumulativeGasUsed": "0xb4d6d1",
      "gasUsed": "0x136a94",
      "contractAddress": null,
      "logs": [],
      "status": "0x1",
      "logsBloom": "0x00000000000000000000000000000000000000000000000000000000000000000000000000000000000000000000000000000000000000000000000000000000000000000000000000000000000000000000000000000000000000000000000000000000000000000000000000000000000000000000000000000000000000000000000000000000000000000000000000000000000000000000000000000000000000000000000000000000000000000000000000000000000000000000000000000000000000000000000000000000000000000000000000000000000000000000000000000000000000000000000000000000000000000000000000000000",
      "type": "0x2",
      "effectiveGasPrice": "0xb2d05e13"
    },
    {
      "transactionHash": "0xd50424b8dfd045734529637216803d9e9efc03dd12e7d5ca46da96508a0bdb7a",
      "transactionIndex": "0x5",
      "blockHash": "0xf10c30528ee35cc18056ecf82b048cb3187067e0b9fbf7ab9a70b91d3ef721d9",
      "blockNumber": "0x80fd43",
      "from": "0x66806e42191E65968Cd520D2615566E24368Ef12",
      "to": "0xa136683524271d54b103923b988D9e75C20DEe77",
      "cumulativeGasUsed": "0xb6436b",
      "gasUsed": "0x16c9a",
      "contractAddress": null,
      "logs": [
        {
          "address": "0xa136683524271d54b103923b988D9e75C20DEe77",
          "topics": [
            "0xddf252ad1be2c89b69c2b068fc378daa952ba7f163c4a11628f55a4df523b3ef",
            "0x0000000000000000000000000000000000000000000000000000000000000000",
            "0x00000000000000000000000066806e42191e65968cd520d2615566e24368ef12",
            "0x0000000000000000000000000000000000000000000000000000000000000000"
          ],
          "data": "0x",
          "blockHash": "0xf10c30528ee35cc18056ecf82b048cb3187067e0b9fbf7ab9a70b91d3ef721d9",
          "blockNumber": "0x80fd43",
          "transactionHash": "0xd50424b8dfd045734529637216803d9e9efc03dd12e7d5ca46da96508a0bdb7a",
          "transactionIndex": "0x5",
          "logIndex": "0x0",
          "removed": false
        }
      ],
      "status": "0x1",
      "logsBloom": "0x00000000000000000000000000000000000000000000000000000000000000000000000000000000000000000000000000000000000000000000000000000000000000000000000000000008000000000000000000000000000000000000000000000000020000000000000000000800000000040000000200000010200000000100000000000000000000000000040000000000000000000000000000000000000000000000000000000000000000000000000000000000000000000000000000000002000000000000000000000000000000000000000000000000000020000000000000000000000000000000000000000000000000000020000000000000",
      "type": "0x2",
      "effectiveGasPrice": "0xb2d05e13"
    },
    {
      "transactionHash": "0x54cf1d4affd6f9cf6d8c159fd6f919c840ceb97ff4f45f7dc35d90c60da952b4",
      "transactionIndex": "0x6",
      "blockHash": "0xf10c30528ee35cc18056ecf82b048cb3187067e0b9fbf7ab9a70b91d3ef721d9",
      "blockNumber": "0x80fd43",
      "from": "0x66806e42191E65968Cd520D2615566E24368Ef12",
      "to": "0xa136683524271d54b103923b988D9e75C20DEe77",
      "cumulativeGasUsed": "0xb72aea",
      "gasUsed": "0xe77f",
      "contractAddress": null,
      "logs": [
        {
          "address": "0xa136683524271d54b103923b988D9e75C20DEe77",
          "topics": [
            "0xddf252ad1be2c89b69c2b068fc378daa952ba7f163c4a11628f55a4df523b3ef",
            "0x0000000000000000000000000000000000000000000000000000000000000000",
            "0x00000000000000000000000066806e42191e65968cd520d2615566e24368ef12",
            "0x0000000000000000000000000000000000000000000000000000000000000001"
          ],
          "data": "0x",
          "blockHash": "0xf10c30528ee35cc18056ecf82b048cb3187067e0b9fbf7ab9a70b91d3ef721d9",
          "blockNumber": "0x80fd43",
          "transactionHash": "0x54cf1d4affd6f9cf6d8c159fd6f919c840ceb97ff4f45f7dc35d90c60da952b4",
          "transactionIndex": "0x6",
          "logIndex": "0x1",
          "removed": false
        }
      ],
      "status": "0x1",
      "logsBloom": "0x00000000000000000000000000000000000000000000000000000000000000000000000000000000000000000000000000000000000000000000000000040000000000000000000000000008000000000000000000040000000000000000000000000000020000000000000000000800000000040000000200000010200000000100000000000000000000000000040000000000000000000000000000000000000000000000000000000000000000000000000000000000000000000000000000000002000000000000000000000000000000000000000000000000000060000000000000000000000000000000000000000000000000000020000000000000",
      "type": "0x2",
      "effectiveGasPrice": "0xb2d05e13"
    }
  ],
  "libraries": [],
  "pending": [],
  "path": "/Users/bct/Documents/Dev/NFT_dev/loveBirds/broadcast/LoveBirds.s.sol/5/run-latest.json",
  "returns": {},
  "timestamp": 1675818692,
  "chain": 5,
  "multi": false,
  "commit": "ee5bf93"
}